:020000040800F2
:10000000E81000209D010008BD5C0008BF5C0008EE
:10001000C15C0008C35C0008C55C0008000000006B
:10002000000000000000000000000000C75C0008A5
:10003000C95C000800000000CB5C0008075F0008F6
:10004000B7010008B7010008B7010008B7010008B0
:10005000B7010008B7010008874A00089F4A000856
:10006000B74A0008CF4A0008E74A00082B3B0008BF
:10007000313B0008373B00083D3B0008433B00088C
:10008000493B00084F3B0008B7010008B7010008D2
:10009000B7010008B7010008B7010008FF4A0008CF
:1000A000634E0008B7010008B7010008434E00087E
:1000B000B7010008534E00084B4E0008B701000876
:1000C000B7010008B7010008B7010008B701000830
:1000D000B70100085B220008A34C00086D2200084D
:1000E000514B0008B7010008B7010008B70100082C
:1000F000B7010008B70100086B4E0008553B000827
:10010000B7010008B70100085B4E0008B7010008FE
:10011000852200089D220008B7010008B7010008E9
:100120005B3B00085F3B0008653B00086B3B000839
:10013000713B0008B7010008B7010008B7010008CB
:10014000B7010008B7010008B7010008B7010008AF
:10015000773B00087D3B0008833B0008B122000884
:10016000B7010008B7010008B7010008B70100088F
:10017000B7010008B7010008B7010008B70100087F
:10018000B7010008B7010008DFF80CD006F060FCEA
:1001900000480047395A0008E81000200648804708
:1001A00006480047FEE7FEE7FEE7FEE7FEE7FEE75C
:1001B000FEE7FEE7FEE7FEE79F6000088901000812
:1001C0002849084328490860704730B50F23C27892
:1001D00001780125FAB1244A126801F1E02102F404
:1001E000E062C2F5E062C2F30722C2F10404D34028
:1001F0004278A24084781C401443220181F80024F4
:10020000007800F01F018D404009800000F1E020DF
:10021000C0F8005130BD01F01F0085404809800042
:1002200000F1E020C0F8805130BD104A1140014378
:100230000D48001F016070470B4A121D002911680C
:1002400001D0014300E08143116070474FF0E0218D
:100250000428086903D020F004000861704740F0CA
:100260000400FAE70000FA050CED00E080FFFF1F34
:10027000F848016841F001010160F64A00210832A6
:1002800011600268F44B1A400260031DF34A1A60C1
:10029000F04BF34A84331A60F04A103A1B1D1A607F
:1002A000026822F480220260EA480C300160181DC6
:1002B00001607047E7490022891C0A700870704786
:1002C00002460020510901290CD002290CD0E14935
:1002D0007431096802F01F02012393400B4200D0E1
:1002E00001207047DB49F4E7DA497031F1E718B5CE
:1002F00000204FF4A04400903120FFF7E1FF009967
:10030000491C0091A14201D00028F5D03120FFF70F
:10031000D7FF002800D0012018BDCE4A116821F077
:10032000F80141EAC00010607047CE49086070478C
:10033000C849002270310A700A70012802D00428CE
:1003400001D1052008707047C7490860704741EA2D
:1003500082115A0810B5C54B029C03EB02421143AF
:10036000014341EA0460BB49091D086010BDBD4955
:1003700008667047800140EA0170B6498431086020
:100380007047B84988667047800140EA0160B1490A
:1003900040EA0270883108607047B24908677047C8
:1003A000B049C8647047AB4B08331A68084322F061
:1003B000EC62104318607047A64B08331A68084374
:1003C00022F07842104318607047A24A0832116840
:1003D00021F003010143116070479E480830006816
:1003E00000F00C0070479B4A0832116821F0F001C0
:1003F000014311607047974A0832116821F4E051B7
:10040000014311607047934A0832116821F460413A
:1004100041EAC0001060704770B58E4B0833196810
:10042000934C11F00C0104D06610042903D0082964
:1004300003D004601BE0066019E0864A121D1168B3
:10044000C1F38055116801F03F0115B1B6FBF1F120
:1004500001E0B4FBF1F114681268C4F3881461433D
:10046000C2F30142521C5200B1FBF2F10160196863
:100470000F2202EA11117F4A545C0168E140416099
:100480001C68072505EA9424145D21FA04F48460AD
:100490001B6805EA5333D25CD140C16070BDC0F324
:1004A0000121032908D16B4B08331968724A21F4E2
:1004B000F81102400A431A60664970310A68C0F3B5
:1004C0000B0002430A60704767494439086070476F
:1004D00065494039086070476249C1F85C0170475E
:1004E0005C4A8C32116821F440110143116070475D
:1004F000584A8C32116821F4400101431160704761
:10050000544A8C321168401E21F01F0101431160D2
:100510007047504A8C3211686FF0FF0321F4F85194
:1005200003EB00200843106070474A4A8C32116880
:1005300021F440310143116070475049C1F8E00196
:100540007047444A30320029116801D0014300E06D
:100550008143116070473F4A34320029116801D04D
:10056000014300E08143116070473A4A3832002964
:10057000116801D0014300E0814311607047354AA2
:1005800040320029116801D0014300E0814311602D
:100590007047304A44320029116801D0014300E01D
:1005A0008143116070472B4A10320029116801D035
:1005B000014300E0814311607047264A143200294C
:1005C000116801D0014300E0814311607047214A66
:1005D00018320029116801D0014300E08143116005
:1005E00070471C4A20320029116801D0014300E005
:1005F000814311607047174A24320029116801D0E5
:10060000014300E0814311607047124A50320029D3
:10061000116801D0014300E08143116070470D4A29
:1006200054320029116801D0014300E08143116078
:100630007047084A58320029116801D0014300E090
:10064000814311607047034A60320029116817D056
:10065000014316E000380240FFFFF6EA10300024A4
:100660000030002000004742800E47420000FFFF9C
:100670000024F40000000020FFFCFF0F00104742A0
:10068000814311607047194A0029116801D0014364
:1006900000E081431160704714490C31012808685B
:1006A00003D020F008000860704740F00800FAE727
:1006B0000E4A573A0029117801D0014300E08143E6
:1006C0001170704709481030016841F08071016075
:1006D00070470146054A0020583A12680A4200D085
:1006E000012070470149563908707047643802404C
:1006F000CD4910B5884206D101211020FFF77BFFBC
:100700000021102020E0C949884202D101214C0477
:1007100029E0C749884202D101218C0423E0C54960
:10072000884202D10121CC041DE0C349884202D194
:1007300001210C0517E0C149884209D1012120207F
:10074000FFF759FF00212020BDE81040FFF753BFFD
:10075000BB49884202D101218C0704E0B949884293
:100760000AD1012144052046FFF73BFF2046BDE8A2
:1007700010400021FFF735BF10BD7FB50446008A49
:100780000D46C98820F4405001432182A08941F2DE
:100790000C618843A9882A8911436A89024311435D
:1007A000A181A08A20F44071A8890843A0826846EC
:1007B000FFF732FE9C48844202D0A048844201D117
:1007C000039800E00298A189090400EBC00101EB45
:1007D0000010296801D5490000E08900B0FBF1F064
:1007E0006422B0FBF2F109010B096FF018056B43AD
:1007F00000EB8300A3891D044FF0320306D503EB01
:10080000C000B0FBF2F000F0070005E003EB0010C1
:10081000B0FBF2F000F00F00084320817FBD4FF4E1
:100820001651016000218180C18001810C2242812A
:100830008181704710B5028A4C8822F470630A885F
:1008400022438C88C9880C4322431A43028210BD7C
:100850000021018041808180C18070470029818909
:1008600002D041F4005101E021F400518181704730
:10087000028B02F47F420283028B0A430283704799
:100880000029818902D041F4004101E0C1F30E0149
:10089000818170470029818A02D041F4006101E022
:1008A00021F4006181827047C1F3080181807047A3
:1008B0008088C0F308007047028A22F00F0202828B
:1008C000028A0A43028270470029818902D041F0DE
:1008D000020101E021F0020181817047828922F446
:1008E0000062828182890A4382817047028A22F0F3
:1008F00020020282028A0A43028270470029018A8A
:1009000002D041F4804101E021F48041018270472E
:10091000818941F00101818170470029818A02D0DB
:1009200041F0080101E021F0080181827047028B4B
:10093000D2B20283028B42EA01210183704700296F
:10094000818A02D041F0200101E021F02001818262
:1009500070470029818A02D041F0100101E021F0A6
:10096000100181827047828A22F004028282828A88
:100970000A43828270470029818A02D041F0020135
:1009800001E021F0020181827047002A828A01D0B1
:100990000A4300E08A438282704710B5C1F34213D4
:1009A00001F01F040121A140012B07D0022B07D029
:1009B0001430002A026805D00A4304E00C30F8E73E
:1009C0001030F6E78A43026010BD0246002012880C
:1009D0000A4200D001207047C9430180704770B5BA
:1009E00001F01F0501260024C1F3421306FA05F2A7
:1009F000012B0FD0022B0FD0838A4FEA11210088E0
:100A0000134206FA01F600EA060001D000B1012403
:100A1000204670BD8389F0E7038AEEE70A0A0121C8
:100A20009140C943018070470010014000440040DC
:100A300000480040004C00400050004000140140BD
:100A400000780040007C0040FE4910B5884206D185
:100A500001210846FFF7CFFD002101205BE0B0F146
:100A6000804F09D0F84988420DD101210220FFF7BB
:100A7000B8FD0021022070E001210846FFF7B1FD1A
:100A80000021012069E0F149884206D101210420BA
:100A9000FFF7A7FD002104205FE0ED49884206D161
:100AA00001210820FFF79DFD0021082055E0E949BC
:100AB000884206D101211020FFF793FD002110206C
:100AC0004BE0E549884206D101212020FFF789FD4E
:100AD0000021202041E0E149884206D10121022085
:100AE000FFF789FD0021022015E0DD49884202D18F
:100AF00001210C040AE0DB49884202D101214C04A7
:100B000004E0D94988420AD101218C042046FFF72C
:100B100072FD00212046BDE81040FFF76CBDD349AF
:100B2000884206D101214020FFF75BFD00214020D3
:100B300013E0CF49884206D101218020FFF751FD03
:100B40000021802009E0CB4988420AD18415012187
:100B50002046FFF746FD00212046BDE81040FFF784
:100B600040BD10BD30B50288B64CBC4DA0420DD082
:100B7000A8420BD0B0F1804F08D0B34B984205D0BB
:100B8000B24B984202D0B24B984203D122F070038C
:100B90004A881A43AF4B984206D0AF4B984203D0D5
:100BA00022F440730A891A4302804A68C2620A88A2
:100BB0000285A04201D0A84201D1897A0186012193
:100BC000818230BD4FF0FF31416000210180018101
:100BD000418081727047018582827047028822F0CD
:100BE00070020A430280704741627047C1627047D9
:100BF000406A7047008D70470029018802D041F09B
:100C0000020101E021F00201018070470029018802
:100C100002D041F0040101E021F00401018070479D
:100C20000029018802D041F0800101E021F080011B
:100C300001807047028822F00802028002880A437D
:100C400002807047028822F44072028002880A43C0
:100C5000028070470029018802D041F0010101E0C3
:100C600021F001010180704730B5028C22F00102B1
:100C70000284028C8388048B22F0020224F0730524
:100C80000C882C438D8915434A882A436D4DA84210
:100C900002D0724DA8420DD122F00805CA8923F472
:100CA00040732A4322F004058A882A430D8A1D4393
:100CB0004B8A2B438380048389684163028430BD5F
:100CC00070B5028C22F010020284028C8388048B9F
:100CD0000D8824F4E6464FF6FF7404EA05253543F3
:100CE0008E8922F0200204EA061616434A8804EA96
:100CF00002123243534EB04202D0584EB04215D188
:100D000022F08006CA8923F4406304EA02123243C7
:100D100022F040068A8804EA021232430E8A04EA6C
:100D200086061E434B8A04EA83033343838005838C
:100D300089688163028470BD70B5028C22F4807270
:100D40000284028C8388848B0D8824F073042543ED
:100D50008E894FF6FF7422F4007204EA06261643C9
:100D60004A8804EA02223243364EB04202D03B4E59
:100D7000B04215D122F40066CA8923F4405304EA34
:100D80000222324322F480668A8804EA0222324335
:100D90000E8A04EA06161E434B8A04EA0313334301
:100DA000838085838968C163028470BD70B5028CBD
:100DB00022F480520284058C8288838B0C8823F471
:100DC000E6464FF6FF7303EA0424344325F4005645
:100DD0008D8903EA053535434E8803EA06362E43EE
:100DE000184DA84202D01D4DA84205D122F48045DD
:100DF0000A8A03EA82122A43828084838968016412
:100E0000068470BD002101804180818081608181E4
:100E1000C18101824182704730B50124058C00F107
:100E200018038C40A543058431B308292CD0091F31
:100E3000C1F34E001844016848F6FF731940016081
:100E400001681AE000000140000400400008004072
:100E5000000C00400010004000140040000401405D
:100E6000004001400044014000480140001800409B
:100E7000001C00400020004006E04FF6FF7303EA2C
:100E800002221143016030BD03EB510001684FF6AF
:100E90008F73194001600168F3E741637047816314
:100EA0007047C163704701647047028B22F0700283
:100EB0000A4302837047028B4FF6FF7322F4E0422D
:100EC00003EA0121114301837047828B22F07002F3
:100ED0000A4382837047828B4FF6FF7322F4E0420D
:100EE00003EA0121114381837047028B22F008023B
:100EF0000A4302837047028B4FF6FF7322F40062AD
:100F000003EA0121114301837047828B22F008021A
:100F10000A4382837047828B4FF6FF7322F400628C
:100F200003EA0121114381837047028B22F00402FE
:100F30000A4302837047028B4FF6FF7322F48062EC
:100F400003EA0121114301837047828B22F00402DE
:100F50000A4382837047828B4FF6FF7322F48062CC
:100F600003EA0121114381837047028B22F0800242
:100F70000A4302837047028B4FF6FF73C2F30E02DF
:100F800003EA0121114301837047828B22F0800222
:100F90000A4382837047828B4FF6FF73C2F30E02BF
:100FA00003EA0121114381837047028C22F002027F
:100FB0000A4302847047028C22F008020A4302842A
:100FC0007047028C4FF6FF7322F0200203EA0111F2
:100FD000114301847047028C4FF6FF7322F08002A8
:100FE00003EA0111114301847047028C4FF6FF732D
:100FF00022F4007203EA0121114301847047028C3C
:101000004FF6FF7322F4006203EA012111430184C9
:101010007047028C4FF6FF7322F4005203EA01314D
:1010200011430184704710B50123048C8B409C430D
:101030000484038C8A401343038410BD10B5042339
:10104000048C8B409C430484038C8A4013430384A8
:1010500010BD828B22F440628283828B4FF6FF7335
:1010600003EA01210A4382837047828B22F00C023B
:101070008283828B0A4382837047028B22F4406210
:101080000283028B4FF6FF7303EA01210A430283B6
:101090007047F0B5048C24F010040484078B068C90
:1010A0004FF6FF7404EA011527F4734704EA03318D
:1010B000394304EA02220A4326F0A001294341F001
:1010C000100102830184F0BD028B22F00C02028326
:1010D000028B0A43028370472DE9F0410C460E88CB
:1010E0004988A288238905460EB3042E26D0082EEF
:1010F0002E8C4FF6FF7028D026F480562E84AF8BAE
:101100002E8C00EA022200EA013127F473473A43A9
:1011100000EA0330104326F420420A4342F480518F
:10112000A8832984E1882846BDE8F04191E700F0D2
:1011300062F9E1882846BDE8F041C5E7FFF7A9FF5D
:10114000E1882846BDE8F04197E726F480762E84B2
:10115000AF8B2E8C00EA012100EA0310104327F028
:10116000F307384326F420620A4342F48071A883CF
:101170002984E1882846BDE8F04176E70021018016
:10118000418001228280C180018170472DE9F041B8
:101190000C46002649880746012501B90226A28887
:1011A000012A00D10225208823890028384610D042
:1011B000FFF76FFFE1883846FFF75FFF23892A4674
:1011C0003146384600F017F9E1883846BDE8F0416D
:1011D0007AE700F010F9E1883846FFF775FF2389B8
:1011E0002A4631463846FFF754FFE1883846BDE8C5
:1011F000F04142E7406B7047806B7047C06B7047AF
:10120000006C704710B50A884B88CC881A438B88CD
:1012100023431A430B891A434B8989891A430A438A
:10122000A0F8442010BD0021018041808180C18050
:101230000181418181817047002930F8441F02D02B
:1012400041F4004101E0C1F30E0101807047002923
:10125000818802D041F0040101E021F00401818085
:1012600070470029818802D041F0010101E021F09E
:10127000010181807047002A828901D00A4300E081
:101280008A43828170478182704702460020128A19
:101290000A4200D001207047C943018270470246CC
:1012A0000020138A92890B4202EA010202D0002A2E
:1012B00000D001207047C943018270471143A0F854
:1012C00048107047002A828901D00A4300E08A430F
:1012D000828170470029818802D041F0080101E035
:1012E00021F0080181807047018921F00701018107
:1012F0007047028922F070020A430281704700B5EC
:101300000346FFF7F6FF188940F00700188100BD7B
:1013100070B516460D46602904464FF0010231466D
:101320000AD000F068F829462046FFF7E2FF20893E
:1013300040F00700208170BDFFF7ABFEF3E730B54A
:1013400004894FF6FF7505EA03231343E4B20B4308
:101350002343038130BD10B50446FFF7F0FF208919
:1013600040F07700208110BD10B50446FFF7E7FF7D
:10137000208940F48040208110BD828822F07002D4
:10138000828082880A4382807047028922F00702A5
:10139000028102890A4302817047028922F0800299
:1013A000028102890A430281704770B50589048B66
:1013B000068C25F007050D434FF6FC410C4040F22A
:1013C00001110C434FF6FF7101EA031126F02206CA
:1013D0001143314305810483018470BD0029818854
:1013E00002D041F0800101E021F08001818070474E
:1013F000A0F85010704770B5048C24F001040484E8
:10140000058B048C4FF6FF7606EA0313134325F091
:10141000F3052B4324F00A020A4342F0010103833F
:10142000018470BDD24910B5884202D101214C051A
:101430000AE0D049884202D101218C0504E0CE495E
:1014400088420AD10121CC052046FFF7CAF8204680
:10145000BDE810400021FFF7C4B810BD7FB50446B9
:1014600080880D4620F03F066846FEF7D5FFC34949
:101470000298B0FBF1F189B20E43A680228822F0D7
:1014800001022280BE4B2A689A421BD85200B0FB50
:10149000F2F080B2042800D20420491C2184A083E9
:1014A000208840F00100208020884FF6F531084068
:1014B000A9886A89114301432180A88929890843A1
:1014C00020817FBDEB88A3F53F46FF3E0BD002EBAA
:1014D000C20303EB0212B0FBF2F080B240F4804092
:1014E000020506D007E002EB4202B0FBF2F080B248
:1014F000F6E740F001004FF4967251434FF47A72D0
:10150000B1FBF2F140F40040C7E741F288310160DD
:10151000002181804BF6FF72C280018141814FF42E
:101520008041818170470029018802D041F001018A
:1015300001E021F00101018070470029818C02D077
:1015400021F0100101E041F0100181847047828C8C
:1015500001F00F0122F00F0211438184704700292E
:10156000018802D041F4807101E021F48071018092
:1015700070470029018802D041F4007101E021F494
:1015800000710180704712B141F0010101E001F0EA
:10159000FE01018270470029018802D041F4806178
:1015A00001E021F4806101807047828901F0FE0131
:1015B00022F0FE021143818170470029818902D007
:1015C00041F0010101E021F0010181817047002912
:1015D000018802D041F0400101E021F0400101808A
:1015E00070470029018802D041F4004101E0C1F3B5
:1015F0000E01018070470029018803D021F080018D
:101600000180704741F08001FAE7B1F5804F818B8E
:1016100002D021F4804101E041F480418183704790
:10162000B1F5006F018803D021F40061018070479B
:1016300041F40061FAE7B1F5005F018803D021F4BD
:1016400000510180704741F40051FAE700290188F8
:1016500002D041F0100101E021F01001018070473B
:1016600001827047008AC0B270470029018802D009
:1016700041F4805101E021F4805101807047B1F5BF
:10168000006F018803D021F400610180704741F4AC
:101690000061FAE70029018802D041F0200101E051
:1016A00021F0200101807047008B000A704700295B
:1016B000818802D041F4006101E021F40061818061
:1016C00070470029818802D041F4805101E021F463
:1016D00080518180704708B508440090008808BD9B
:1016E000002A828801D00A4300E08A438280704742
:1016F000034600209A8A1B8B42EA034222F07F4273
:10170000914300D101207047818A008B41EA00415A
:1017100021F07F4070470CB50246002000920A0F6E
:1017200021F07F41019202D0009A143202E0009A27
:10173000090C1832009212680A4200D001200CBD38
:10174000C9438182704710B5034600209A884FF440
:10175000E06404EA11449B8A224021F07F410B425D
:1017600002D0002A00D0012010BDC94381827047F9
:101770000054004000580040005C004040420F0010
:10178000A086010010B501210C022046FEF733FFB0
:101790002046BDE810400021FEF72DBF30B542685D
:1017A000C84B0C791A400B6842EA04221343436089
:1017B0008268C54B4D791A40D1E9034323438C68B5
:1017C00044EA4504234313438360C26A097D22F43B
:1017D0007002491EC9B242EA0151C16230BD002106
:1017E0000160017141718160C16001610121017578
:1017F0007047B64B10B5D3F80423B5490A40D0E979
:1018000000142143D0E90240044321431143C3F8AB
:10181000041310BD0021016041608160C160704708
:101820000029816802D041F0010101E021F00101AD
:10183000816070474268A74B1A400A434260704774
:10184000416282627047426822F01F020A4342608E
:1018500070479E490028D1F8040302D040F40000EC
:1018600001E020F40000C1F8040370479749002804
:10187000D1F8040302D040F4800001E020F480009D
:10188000C1F80403704770B5072609290AD9C5684D
:10189000A1F10A0404EB4404A640B543A3401D4350
:1018A000C56007E0056901EB4104A640B543A340CC
:1018B0001D4305611F23072A09D2446B521E02EB08
:1018C000820293409C4391400C43446370BD0D2AB7
:1018D00009D2046BD21F02EB820293409C439140D9
:1018E0000C43046370BDC46A0D3A02EB820293405C
:1018F0009C4391400C43C46270BD816841F08041BB
:1019000081607047014600208968490000D50120A8
:1019100070470029816802D041F4806101E021F420
:101920008061816070470029816802D041F0020126
:1019300001E021F00201816070474268491E22F4F3
:10194000604242EA4131416070470029416802D05B
:1019500041F4006101E021F4006141607047C06C16
:1019600080B270475948D0F8080370470029816851
:1019700002D041F4807101E021F4807181607047F0
:101980000029816802D041F4007101E021F4007166
:10199000816070474D490028D1F8040302D040F41B
:1019A000005001E020F40050C1F80403704770B506
:1019B000072609290AD9C568A1F10A0404EB4404E1
:1019C000A640B543A3401D43C56007E0056901EB90
:1019D0004104A640B543A3401D430561836BC3F397
:1019E0000154121B921C02EB82021F249440A34359
:1019F00091400B43836370BD826B491E22F44012F9
:101A000042EA01518163704708B5084400900260C2
:101A100008BD826822F470220A438260704782689F
:101A200022F440120A4382607047816841F48001C9
:101A300081607047014600208968490200D5012075
:101A400070470029416802D041F4806101E021F42F
:101A50008061416070470029416802D041F48051A3
:101A600001E021F480514160704708B508442830F6
:101A70000090006880B208BD01238B4041680AB124
:101A8000194300E099434160704702460020126804
:101A90000A4200D001207047C9430160704730B549
:101AA0000246002053680C0A01258D4011682B4026
:101AB000214202D0002B00D0012030BD6FEA11215D
:101AC00001607047FFFEFFFCFDF7FFC000200140F2
:101AD000E030FCFFFFFD3FFF70B55A484168491CEC
:101AE0004160816811B18168491E8160AFF3008057
:101AF0000024554E18E006EB8405686890B1017B20
:101B000081B1826872B1521E826069680AD14869E7
:101B1000096988476868016881606868416809B92F
:101B200000210173641CE4B23078A042E3D870BD98
:101B3000464801684FF47A70B1FBF0F0401EB0F1F6
:101B4000807F12D24FF0E0225061414BF02083F8A9
:101B5000140D00209061072010613E48B1FBF0F1A8
:101B60003848C160012101707047FEE735480078B0
:101B7000002805D04FF0E020016941F00201016129
:101B800070474FF0E020016921F0020101617047C8
:101B90002DE9F0472C4C0546DDF8209020781E46B4
:101BA00017468846052802D30020BDE8F087182094
:101BB00006F00CFE0028F8D00560C0E90185077327
:101BC000C0E90469217804EB810148602178491C4F
:101BD0002170EAE71C4B30B400211A7806E003EBD1
:101BE00081046468844203D0491CC9B28A42F6D891
:101BF0008A4218D003EB81004068EFF3108472B67C
:101C000005E003EB8102491C9568C9B255601A785A
:101C1000521E8A42F5DC1978491E197004B962B661
:101C200030BC06F0ABBD30BC70470021017370477B
:101C300001210173704701688160704741607047FE
:101C40000160704710000020480200202802002098
:101C50000FE000E0C0C62D00FE4A0146904200D1D0
:101C60000020FD4A914200D10220FC4A914200D15D
:101C70000120FB4A914200D10420FA4A914200D14E
:101C80000520F94A914200D10620704770471CB5E3
:101C90000822032140B101280DD0032803D10821D7
:101CA000F148FFF7F3FF1CBDCDE90012012300222C
:101CB000C021EE4806E0CDE90012012300224FF4D6
:101CC0008441EB4800F06DFB1CBD7CB530B10328AE
:101CD00003D10821E348FFF7D9FF7CBD0825032481
:101CE000012300221903E148CDE9004500F059FB2A
:101CF000012300220421DF48CDE9004500F051FB1B
:101D00007CBD1CB50822032140B101280DD0032859
:101D100003D10821D248FFF7B9FF1CBDCDE900125D
:101D2000012300220321D44806E0CDE9001201235B
:101D300000224FF44061CD4800F033FB1CBD1CB5C0
:101D400007220323990250B101280ED0022812D095
:101D5000032803D10721C148FFF798FF1CBDCDE937
:101D6000003201230022C5480CE0CDE900320123F6
:101D70000022BE4806E0CDE90032012300224FF4E4
:101D80004071BC4800F00DFB1CBD1CB507220321AF
:101D900040B101280DD0032803D10721AE48FFF739
:101DA00075FF1CBDCDE90012012300220C21B248B1
:101DB00005E0CDE90012012300226021AD4800F0CA
:101DC000F0FA1CBD1CB50722032140B101280ED03A
:101DD000032803D107219F48FFF758FF1CBDCDE919
:101DE0000012012300224FF4C061A34805E0CDE9B1
:101DF000001201230022C021A04800F0D2FA1CBD2D
:101E0000944A0146904200D19D48934A914201D1A3
:101E10009B481030914A914201D199482030904A14
:101E2000914201D1964830308E4A914201D1944876
:101E300040308D4A914201D19148503070472DE990
:101E4000FF4F87B09A46DDE914B913460446DDF822
:101E50005C80FFF7D5FF05467E488A4F0193844298
:101E600009D1386840F0100038600898FFF7AAFFE1
:101E700025208DF80000834E7748361F844209D113
:101E8000306840F4003030600898FFF77EFF26206D
:101E90008DF800007148844209D1306840F48020F8
:101EA00030600898FFF74BFF27208DF800006C4842
:101EB000844209D1306840F4002030600898FFF770
:101EC00020FF34208DF800006648844209D1306834
:101ED00040F4801030600898FFF7F7FE35208DF849
:101EE00000006148844209D1386840F02000386021
:101EF0000898FFF7CCFE47208DF800002046FEF73B
:101F0000F7FB01268DF8036006208DF801002046BE
:101F1000FFF7A2FE8DF802006846FEF756F9169804
:101F2000ADF80A00ADF80EB0ADF810A0ADF80C9009
:101F3000ADF808800020287340F6FF700590411E20
:101F4000059101D30846FAE701A92046FEF715FCE2
:101F5000A08940F02000A0812E73A08940F4005099
:101F6000A0810BB0BDE8F08F2DE9FF410446394850
:101F700000250C2617468846844206D1CDE9006527
:101F8000029500230395FFF75AFF3348844208D196
:101F9000CDE90065029500233A4641460395FFF7D7
:101FA0004EFF2E48844208D1CDE9006502950023FA
:101FB0003A4641460395FFF742FF2948844208D13B
:101FC000CDE90065029500233A4641460395FFF7A7
:101FD00036FF2448844208D1CDE9006502950023EC
:101FE0003A4641460395FFF72AFF1F48844208D12D
:101FF000CDE90065029500233A4641460395FFF777
:102000001EFFBDE8FF812DE9FF470446114800256A
:102010000C261F4690468946844205D1CDE90065CD
:1020200002950395FFF70BFF0B48844208D1CDE9D9
:10203000006502953B46424649460395FFF7FFFE81
:102040000648844223D1CDE9006502953B464246CD
:10205000494619E00010014000440040004800409B
:10206000004C0040005000400014014000080240B5
:1020700000180240000C0240000002400004024030
:1020800020000020443802400395FFF7D8FE8E4818
:10209000844208D1CDE9006502953B464246494657
:1020A0000395FFF7CCFE8948844208D1CDE900654D
:1020B00002953B46424649460395FFF7C0FE8448D9
:1020C000844208D1CDE9006502953B464246494627
:1020D0000395FFF7B4FEBDE8FF8710B50023FFF7B7
:1020E0008FFEC18819B902894489A2420DD0428964
:1020F00083889A4201D100224281036892B29B56A2
:10210000521C428109B1491EC180D8B210BD10B520
:102110000C46FFF775FEC38842890DE08188914225
:1021200000D100220168895CA14201D1012010BDCB
:10213000521C5B1E92B29BB2002BEFD1002010BD4F
:10214000F0B516460F4684460024FFF759FE0546B3
:10215000C08840B1697B6046FFF7D9FF78B9E8884D
:10216000A98888420BD00020F0BD6046FFF7B5FF7C
:102170003855697B884205D0641CA4B200E0761E05
:10218000B442F2DB0021641CA0B23954F0BD00B5AA
:10219000FFF736FEC18829B901894089814201D102
:1021A000012000BD002000BD00B5FFF729FEC18859
:1021B0008088814201D1012000BD002000BD00B512
:1021C000FFF71EFE0021C1800181418100BD00B5E5
:1021D0000B46FFF715FE437300BD10B50C460346D2
:1021E000FFF70EFE007B00280BD007E019880906D8
:1021F000FCD59880641C18880006FCD5207800283F
:10220000F4D110BD70B515460E460446FFF7F8FD33
:10221000007B00280DD0002309E020880006FCD5B3
:10222000F05CA08020880006FCD55B1C9BB2AB4212
:10223000F3D370BDC388828893420DD20389934241
:1022400001D10022028103890268D1540189491C0D
:102250000181C188491CC18070471E4801888906D8
:1022600003D58088C1B21C48E4E770471B4800884A
:10227000800606D51948001D0088C1B216482030D6
:10228000D8E7704710480088800606D50E48001D24
:102290000088C1B210483030CCE770470B48018845
:1022A000890604D58088C1B20B484030C2E7704728
:1022B00007480088800606D50548001D0088C1B281
:1022C00005485030B6E77047004C004000500040D1
:1022D0000014014000100140200000200048004090
:1022E000A3490844C0F38F2070472DE9F04F9A4668
:1022F000DDE909B889460346FFF7F2FFC5B20020C1
:102300004FF0030E0121814011EA090F28D0994EA8
:1023100036F815400C4326F81540DF6844000EFAE5
:1023200004F6B7430BFA04FC47EA0C07DF601F68AA
:1023300002FA04FCB74347EA0C071F60012A01D0E8
:10234000022A0DD15F6889B28F430AFA00F189B27F
:102350000F435F60996808FA04F4B1432143996020
:10236000401CC0B21028CDD3BDE8F08F00B5FFF7F8
:10237000B7FF01218140804802681143016000BD20
:10238000FCB51646DDE907C50C00074608D0FFF787
:10239000EDFFCDE900C5324621463846FFF7A5FFDF
:1023A000FCBD2DE9FC4F9946DDE90BB792460D00C7
:1023B000064622D0FFF7DAFF002201214FF00F0C72
:1023C00001FA02F028420DD0D00806EB8003186A0B
:1023D0005407E40E0CFA04F820EA080007FA04F4A3
:1023E00020431862521C102AEAD3CDE9009B5346C1
:1023F000022229463046FFF778FFBDE8FC8FF0B592
:102400000E460546FFF76CFF00225A49C4B24FF052
:10241000010C03270CFA02F333420CD028684FEA70
:10242000420E07FA0EFE40EA0E00286031F8140052
:10243000984321F81400521CD2B2102AEAD3F0BDFE
:10244000F0B500220125032605FA02F30B4205D060
:102450000468570006FA07F39C430460521CD2B28A
:10246000102AF1D3F0BDF0B500220127032607FAA8
:1024700002F33C460B4208D00568530006FA03FC01
:1024800025EA0C059C4025430560521CD2B2102A57
:10249000EDD3F0BDF0B500220125032605FA02F3C5
:1024A0000B4205D00468570006FA07F31C4304608A
:1024B000521CD2B2102AF1D3F0BDF0B50022012691
:1024C0000324022706FA02F30B4209D005685300E1
:1024D00004FA03FC25EA0C0507FA03F31D43056023
:1024E000521CD2B2102AEDD3F0BDF0B50023012763
:1024F000032507FA03F40C4209D0C6685C0005FA0C
:1025000004FC26EA0C0602FA04F42643C6605B1CAF
:10251000DBB2102BEDD3F0BD41F48032C261C1615A
:10252000C261C169C0697047002102E0491C89B2DB
:1025300040080128FAD80846704700B5FFF7D0FEDA
:10254000012181400C4802688A43026000BD00B549
:10255000FFF7C6FE074931F8100000BD00B5FFF7D0
:10256000BFFE044931F81000C04380B200BD000036
:102570000000FEBFE00300203038024070B5044682
:102580002DED028B8AB0FC48B0EE408AF0EE608AF6
:102590000D46844202D0F948844204D104200AB096
:1025A000BDEC028B70BD694620462C6001F074F8CA
:1025B000009803F097FF53EC182B03F0EBFF54D374
:1025C0009FEDEF0B51EC180B53EC102B03F0E2FFD7
:1025D00001D10220E3E7B0EE480AF0EE680A68464F
:1025E00001F09DF80398E8B351EC180B03F0A6FF37
:1025F00053EC182B9FEDE40BE86051EC100B03F04B
:10260000F1FE03F09BFF2861039868600498A860BE
:10261000204601F0D9F804980026401EADF81800B5
:102620000398ADF82060401E0790ADF81A608DF851
:10263000226006A92046FEF795FA01212046FEF702
:10264000EFFAD348844202D0D248844203D1012118
:102650002046FEF7F1FD208840F00100208085F83B
:10266000246000E001E0002099E7012097E71CB515
:1026700002004FF0060001D005201CBD09230322F3
:1026800059B10129F9D1CDE9002300231A464902A5
:10269000C148FFF786FE00201CBDCDE900230023C2
:1026A0001A468021BD48F4E71CB502004FF0060031
:1026B00001D005201CBD0923032259B10129F9D1FC
:1026C000CDE9002300231A460902B348FFF769FE4B
:1026D00000201CBDCDE9002300231A460221AF488B
:1026E000F4E77CB50200AE4CAE4D4FF006004FF063
:1026F00009064FF0030303D0012A15D005207CBD45
:1027000039B10129FBD1CDE9003600231A46402119
:1027100012E0CDE9003600231A464FF4804113E061
:10272000FFF73FFE00207CBD41B10129FBD1CDE97F
:10273000003600231A4649022846F1E7CDE9003663
:1027400000231A464FF400412046E9E71CB5020079
:102750004FF0060001D005201CBD032259B101290C
:10276000FAD10092002301921A4680218A48FFF78D
:1027700018FE00201CBD0092002301921A464FF45F
:1027800000718748F3E71CB502004FF0060001D046
:1027900005201CBD032259B10129FAD10092002362
:1027A00001921A4640217C48FFF7FBFD00201CBD2A
:1027B0000092002301921A464FF480717848F3E7A3
:1027C0007CB50200754C784D4FF006004FF00303C6
:1027D00003D0012A14D005207CBD39B10129FBD1D9
:1027E0000093019300231A46202111E000930193E6
:1027F00000231A46042112E0FFF7D3FD00207CBD20
:1028000041B10129FBD10093019300231A464021D5
:102810002846F1E70093019300231A460821204639
:10282000EAE77CB50200614C614D4FF006004FF0C5
:10283000030308D0012A19D0A615022A25D0032A9D
:1028400032D005207CBD39B10129FBD10093019321
:1028500000231A4620212FE00093019300231A46FB
:10286000402131E0FFF79DFD00207CBD39B10129F9
:10287000FBD10093019300231A4640211CE00093F2
:10288000019300231A4680211EE039B10129ECD1C1
:102890000093019300231A4680210DE000930193D9
:1028A00000231A4631460FE041B10129DDD10093E2
:1028B000019300231A4631462846D3E7009301933B
:1028C00000231A464FF400712046CBE77CB5020086
:1028D000324D344E4FF006004FF002034FF0030428
:1028E00007D0012A18D0022A25D0032A33D0052088
:1028F0007CBD39B10129FBD1CDE9004300231A4643
:10290000890220E0CDE9004300231A46012130E08E
:10291000FFF747FD00207CBD39B10129FBD1CDE98E
:10292000004300231A46C9020DE0CDE9004300230D
:102930001A4602211DE041B10129ECD1CDE9004345
:1029400000231A4609033046E2E7CDE9004300239D
:102950001A4604210DE039B10129DCD1CDE900434B
:1029600000231A461248D3E7CDE9004300231A4654
:1029700008212846CCE70000001000400014004069
:1029800000000000000000000000000080842E41D4
:102990000000014000040140001402400000024019
:1029A00000040240001C02400010024000080240E7
:1029B000002002407CB502004FF006004FF00203F9
:1029C0004FF00304FD4DFE4E07D0012A18D0022A15
:1029D00025D0032A33D005207CBD39B10129FBD194
:1029E000CDE9004300231A46090330E0CDE9004356
:1029F00000231A46402132E0FFF7D3FC00207CBDC3
:102A000039B10129FBD1CDE9004300231A4649031E
:102A10001DE0CDE9004300231A4680211FE039B1B3
:102A20000129ECD1CDE9004300231A4689030EE0C9
:102A3000CDE9004300231A464FF480710FE041B105
:102A40000129DCD1CDE9004300231A46C9033046F1
:102A5000D2E7CDE9004300231A464FF4007128461F
:102A6000CAE72DE9FC410400D64FD44DD64E4FF0B5
:102A700006004FF002024FF0030308D0012C21D0D2
:102A8000022C37D0032C44D00520BDE8FC8149B18D
:102A900001290DD00229F8D1CDE9003200231A46D0
:102AA00049023EE0CDE9003200231A46402119E0F8
:102AB000CDE9003200231A46102139E0FFF771FCFE
:102AC0000020E2E749B101290ED00229DDD1CDE98C
:102AD000003200231A46802123E0CDE90032002392
:102AE0001A4680213846E9E7CDE9003200231A462C
:102AF00020211DE039B10129C7D1CDE900320023E1
:102B00001A4609020DE0CDE9003200231A460121E0
:102B10000EE041B10129B8D1CDE9003200231A46B7
:102B200049023046CAE7CDE9003200231A460221A5
:102B30002846C3E77CB50200A24D4FF006004FF0D7
:102B400001034FF0030408D09C4E012A20D0022A32
:102B50002DD0032A3AD005207CBD49B101290DD0E2
:102B60000229F9D1CDE9004300231A4689033CE04C
:102B7000CDE9004300231A46012136E0CDE90043A8
:102B800000231A46202130E0FFF70BFC00207CBD1B
:102B900039B10129FBD1CDE9004300231A460821B0
:102BA0001CE0CDE9004300231A4602211DE039B1A3
:102BB0000129ECD1CDE9004300231A4689020DE03A
:102BC000CDE9004300231A4604210EE041B101295A
:102BD000DDD1CDE9004300231A46C9023046D3E7D0
:102BE000CDE9004300231A4608212846CCE72DE909
:102BF000FC418C460200734D744E4FF006004FF0BE
:102C000001034FF003044FF4007108D04F00012A74
:102C10001BD0022A2AD0032A3BD0052035E7BCF17D
:102C2000000F07D0BCF1010FF8D1CDE9004300231C
:102C30001A463AE0CDE9004300231A464FF480716A
:102C40003BE0FFF7AEFB00201FE7BCF1000F08D010
:102C5000BCF1010FE2D1CDE9004300231A46394609
:102C600023E0CDE9004300231A4626E0BCF1000F23
:102C700009D0BCF1010FD1D1CDE9004300231A46A0
:102C80004FF4005111E0CDE9004300231A463946C4
:102C900013E0BCF1000F0AD0BCF1010FBED1CDE9A9
:102CA000004300231A464FF480413046C9E7CDE97E
:102CB000004300231A464FF400612846C1E70B4643
:102CC00000684349884202D1114618468FE7B0F1A7
:102CD000804F05D03F49884205D111461846C0E6CD
:102CE0001146184626E73C49884202D1114618464B
:102CF00060E63A49884202D111461846E6E538496D
:102D0000884202D1114618468BE53649884202D1E5
:102D10001146184654E53449884202D111461846F6
:102D200031E53249884202D1114618460EE5304954
:102D3000884202D111461846D3E42E49884202D176
:102D400011461846B0E42C49884202D11146184673
:102D50008DE40420704730B504464068154685B0C0
:102D6000A84202D8032005B030BD70200222ADF881
:102D70000000ADF80C20012004EB81020295ADF8B3
:102D8000020055610A1E00FA01F0C0B206D0012906
:102D900037D0022947D0032A68D156E094F824108E
:102DA00001420AD1014384F8241069462068FDF7E6
:102DB0005BFF08212068FEF798F81FE0000402403E
:102DC000000C0240000002400008024000100240D7
:102DD000000001400004004000080040000C0040DA
:102DE000000401400040014000440140004801400F
:102DF00000180040001C004000200040206845638F
:102E000034E094F8241001420AD1014384F82410DC
:102E100069462068FDF754FF08212068FEF76BF82B
:102E20002068856322E094F8241001420AD101430E
:102E300084F8241069462068FDF77EFF0821206889
:102E4000FEF763F82068C56310E094F8241001428F
:102E50000AD1014384F8241069462068FDF7A6FFD3
:102E600008212068FEF757F82068056400207AE7FB
:102E700010EE102A144B9A4201DD426805E0B5EECF
:102E8000C00AF1EE10FA01D8002264E74268521E2F
:102E900000EE902A6423F8EE600A20EE800ABCEE71
:102EA000C00A10EE102AB2FBF3F2EEE730B4036969
:102EB000934202D230BC032070474468641E5443DE
:102EC000B4FBF3F230BC46E70000C8421CB5020078
:102ED0004FF0030001D002201CBD0322092359B189
:102EE0000129F9D1CDE9002300231A464902F94806
:102EF000FFF757FA00201CBDCDE9002300231A4636
:102F00008021F548F4E71CB502004FF0030001D022
:102F100002201CBD0322092359B10129F9D1CDE9B1
:102F2000002300231A460902EA48FFF73AFA002074
:102F30001CBDCDE9002300231A460221E648F4E730
:102F40007CB502004FF00300E44CE54D03464FF022
:102F5000090603D0012A15D002207CBD39B1012910
:102F6000FBD1CDE9003600231A46402112E0CDE91D
:102F7000003600231A464FF4804113E0FFF711FAA0
:102F800000207CBD41B10129FBD1CDE900360023F1
:102F90001A4649022846F1E7CDE9003600231A46D1
:102FA0004FF400412046E9E71CB502004FF0030052
:102FB00001D002201CBD032259B10129FAD100928F
:102FC000002301921A468021C248FFF7EAF9002047
:102FD0001CBD0092002301921A464FF40071BF48B5
:102FE000F3E71CB502004FF0030001D002201CBD26
:102FF000032259B10129FAD10092002301921A4605
:103000004021B448FFF7CDF900201CBD00920023F9
:1030100001921A464FF48071B048F3E77CB5020084
:103020004FF00300AC4CAF4D034603D0012A14D03F
:1030300002207CBD39B10129FBD10093019300230B
:103040001A46202111E00093019300231A4604211F
:1030500012E0FFF7A6F900207CBD41B10129FBD1A8
:103060000093019300231A4640212846F1E700937C
:10307000019300231A4608212046EAE77CB50200A6
:103080004FF00300984C994D034603D0012A14D009
:1030900002207CBD39B10129FBD1009301930023AB
:1030A0001A46202111E00093019300231A46402183
:1030B00012E0FFF776F900207CBD41B10129FBD178
:1030C0000093019300231A4640212846F1E700931C
:1030D000019300231A4680212046EAE77CB50200CE
:1030E0004FF003007C4C7E4D03464FF0020603D0A8
:1030F000012A14D002207CBD39B10129FBD1CDE9D0
:10310000003600231A46890211E0CDE9003600237B
:103110001A46012112E0FFF744F900207CBD41B1BD
:103120000129FBD1CDE9003600231A46C902284601
:10313000F1E7CDE9003600231A4602212046EAE7EE
:103140007CB502004FF00300644C694D03464FF01C
:10315000020603D0012A14D002207CBD39B1012916
:10316000FBD1CDE9003600231A46090311E0CDE971
:10317000003600231A46402112E0FFF712F9002022
:103180007CBD41B10129FBD1CDE9003600231A46AF
:1031900049032846F1E7CDE9003600231A4680218D
:1031A0002046EAE72DE9FC4107004FF003004A4CB6
:1031B0004A4D4D4E02464FF0020304D0012F1DD060
:1031C0000220BDE8FC8149B101290DD00229F8D1C6
:1031D000CDE9002300231A46490219E0CDE9002376
:1031E00000231A4640211AE0CDE9002300231A46A5
:1031F00010211BE0FFF7D5F80020E2E751B10129CB
:103200000FD00229DDD1CDE9002300231A46802109
:103210003046EFE7CDE9002300231A4680212046FF
:10322000E8E7CDE9002300231A4620212846E1E7FC
:103230007CB504004FF00300274D02464FF0010318
:1032400003D0012C1CD002207CBD49B101290DD036
:103250000229F9D1CDE9002300231A4689030AE0A7
:10326000CDE9002300231A46012104E0CDE9002323
:1032700000231A4620212846FFF793F800207CBD42
:1032800041B10129FBD1CDE9002300231A460821D1
:103290001248F1E7CDE9002300231A460221EAE7AC
:1032A0002DE9FC4102004FF003000B4C0D4D03468D
:1032B0004FF001074FF4007603D0012A25D00220F9
:1032C0007FE7B9B10129FBD1CDE9003700231A46C8
:1032D000314622E000140240000002400004024097
:1032E000001C024000100240000802400020024082
:1032F000000C0240CDE9003700231A464FF48071DC
:1033000012E0FFF74EF800205BE741B10129D7D169
:10331000CDE9003700231A4689022846F1E7CDE9B6
:10332000003700231A4631462046EAE70B468068FC
:10333000C949884202D111461846B1E7B0F1804F21
:1033400005D0C649884205D1114618462AE71146DC
:1033500018466DE7C249884202D111461846EFE689
:10336000C049884202D111461846B7E6BE49884294
:1033700002D11146184681E6BC49884202D1114665
:1033800018464BE6BA49884202D11146184628E64B
:10339000B849884202D11146184605E6B649884226
:1033A00002D111461846CBE5B449884202D11146F4
:1033B0001846A8E5B249884202D11146184685E56B
:1033C000012070472DE9F0410C462DED028B88B0AD
:1033D000AC49109FB0EE408A98461546884202D00C
:1033E000A949884205D1012008B0BDEC028BBDE897
:1033F000F08104F10C010E46A06000F04DF918EECA
:10340000100A03F0B4F841EC100B304600F087F9D5
:10341000A06800F0D9F903A8FDF7D4FB2069B0F546
:10342000803F01D14FF6FF700490A08B03A9401E8E
:10343000ADF80C00A068FDF795FB9448022100262A
:1034400001718671C67103214171424629462046A9
:10345000FFF76CFF0028C7D18C4A84F82C60103A23
:103460004FF00108118894F82C0008FA00F30B4281
:1034700005D1C3B208FA03F00843108005E0401CF0
:10348000C0B284F82C001028EDD38DF818708DF898
:10349000198094F82C008DF81A008DF81B8006A86E
:1034A000FCF793FE45B30420ADF80000ADF80480AE
:1034B000ADF80260ADF80660ADF808606946A06836
:1034C000FDF764FEA068D5B16021FDF712FF04216D
:1034D000A068FDF75AFF8021A068FDF75EFF01217B
:1034E000A068FDF7B7FBA0684FF001024DB10421C1
:1034F000FDF7C1FE002077E7ADF80060D6E7502168
:10350000E3E70221F4E790ED090A80ED000A90ED6F
:103510000A0A80ED010A9FED5E0A80ED090A80ED3E
:103520000A0A0020704770B504462DED028B022177
:103530008068FDF7B4FEDFED578A9FED558A534D45
:10354000103DD0B30221A068FDF7B5FEA068FDF7DD
:1035500051FE00EE100AB8EE400A85ED010A95ED25
:10356000010AB5EEC00AF1EE10FA27D0A068FDF707
:1035700043FE00EE100AD5ED010AB8EE400A20EE37
:10358000280A80EE201A85ED021A94ED030A95EDC3
:10359000011AF8EE400A94ED070AB8EE400A20EE50
:1035A000010A80EE801A85ED031A95ED020A84ED7A
:1035B0000A0A95ED030A84ED090A03E085ED028A03
:1035C00085ED038A0421A068FDF769FED0B30421CC
:1035D000A068FDF770FEA068FDF70EFE00EE100A71
:1035E000B8EE400A85ED010A95ED010AB5EEC00A74
:1035F000F1EE10FA27D0A068FDF7FCFD00EE100AEE
:10360000D5ED010AB8EE400A20EE280A80EE201A15
:1036100085ED021A94ED030A95ED011AF8EE400AC1
:1036200094ED070AB8EE400A20EE010A80EE801AF7
:1036300085ED031A95ED020A84ED0A0A95ED030A59
:1036400084ED090A03E085ED028A85ED038A0020F6
:10365000BDEC028B70BD0000000001400004004082
:1036600000080040000C0040000401400040014000
:10367000004401400048014000180040001C004088
:103680000020004000100040001400409000002086
:10369000000000000000C8427FB504460D466846A1
:1036A000FCF7BAFE4FF6FF70A860B4F1804F02D06D
:1036B000AC498C4205D1039828604FF0FF30686018
:1036C00028E0A9498C420BD0A8498C4208D0A849CF
:1036D0008C4205D0A7498C4202D0A7498C4201D127
:1036E000019915E0A5498C4211D0A5498C420ED014
:1036F000A4498C420BD0A4498C4208D0A3498C42E7
:1037000005D0A3498C4202D0A2498C4205D103992D
:10371000C5E90010002004B070BD0220FBE72DE9D0
:10372000F04704462DED028BB0EE408AF0EE608A41
:103730000025006802F0D6FE53EC182B02F02AFF99
:1037400007D22561E56003206561BDEC028BBDE811
:10375000F0879FED910B51EC180B53EC102B02F0FE
:1037600019FF03D12561E560656124E06068B0F56B
:10377000803F01D2401C60602561D4E90186276842
:10378000A946761C6D1CB7FBF5F002F0ABFE53ECBE
:10379000182B02F027FE02F0D1FEC4E903054045D4
:1037A00001D9B542EED9B54207D9C4F81090C4F892
:1037B0000C90C4F814900420C7E751EC180B02F0E9
:1037C000BDFE60610020C0E76749754A884203D1A9
:1037D000116841F0010111607149091FB0F1804F7A
:1037E00055D0664B984203D10B6843F002030B603F
:1037F000634B984203D10B6843F004030B60594BB1
:10380000984203D10B6843F008030B605D4B98426C
:1038100003D10B6843F010030B605B4B984203D15C
:103820000B6843F020030B60504B984203D11368A0
:1038300043F0020313604E4B984203D1136843F4E4
:10384000803313604B4B984203D1136843F4003329
:103850001360494B984203D1136843F480231360EB
:103860004A4A904203D10A6842F040020A60484A3C
:10387000904203D10A6842F080020A60454A9042B1
:1038800003D1086840F48070086000207047086821
:1038900040F00100F8E73449414A884203D11168F9
:1038A00021F0010111603E49091FB0F1804F55D050
:1038B000324B984203D10B6823F002030B60304B6C
:1038C000984203D10B6823F004030B60254B984208
:1038D00003D10B6823F008030B602A4B984203D1F5
:1038E0000B6823F010030B60274B984203D10B6841
:1038F00023F020030B601D4B984203D1136823F083
:10390000020313601A4B984203D1136823F48033E7
:103910001360184B984203D1136823F400331360EB
:10392000154B984203D1136823F480231360174A80
:10393000904203D10A6822F040020A60144A904281
:1039400003D10A6822F080020A60124A904203D131
:10395000086820F48070086000207047086820F034
:103960000100F8E7000C00400000014000040140A5
:103970000040014000440140004801400004004074
:1039800000080040001000400014004000180040F3
:10399000001C00400020004000000000000000006B
:1039A00044380240784A10B51823904202D2774A30
:1039B000774C03E0744A744C083A64422044B0FBEC
:1039C000F3F0042801D3001F121D724B01F03D01DA
:1039D000185C8140116010BD3D21E3E76A4918225F
:1039E000884203D269496A4B083903E06649664B4D
:1039F00010395B421844B0FBF2F0042801D3001FD9
:103A0000091D0968634A105CC14001F03D00704720
:103A100038B504463D21FFF7C5FF5E4A5A4B1820D2
:103A2000121D01219C4207D2594B8DF801102344ED
:103A3000B3FBF0F0125C08E0534B8DF801105B42D1
:103A40002344B3FBF0F00244127A8DF800208DF885
:103A500003108DF802006846FCF7B7FB206840F0C1
:103A60001E002060606940F08000606138BD10B5C4
:103A700004463D21FFF796FF4648434A1821001DA2
:103A8000944201D2424A01E03F4A52422244B2FBF0
:103A9000F1F14056012100F01F02914040098000E1
:103AA00000F1E020C0F88011206820F01E002060A6
:103AB000606900F08000606110BD7047704770471A
:103AC0007047704770B505463D21FFF787FF84B208
:103AD0003D212846FFF766FFA00605D52868C006E9
:103AE00002D52846FFF7E9FFE00605D5286800075C
:103AF00002D52846FFF7E2FF200705D528684007D2
:103B000002D52846FFF7DBFF600705D52868800748
:103B100002D52846FFF7D4FFE00705D06869000604
:103B200002D52846FFF7CDFF70BD18480830C9E719
:103B300016482030C6E715483830C3E713485030E0
:103B4000C0E712486830BDE710488030BAE70F4838
:103B50009830B7E70D48B030B4E70B48B2E70A48F1
:103B60001830AFE708483030ACE707484830A9E7DD
:103B700005486030A6E704487830A3E70248903053
:103B8000A0E70148A8309DE71064024008600240A9
:103B9000F09FFDBFA688000810B5FF4A88B002213B
:103BA000FE4C204600F095FAEE21204600F053FC32
:103BB000C8B31620009001ABAA22EE21204600F0E7
:103BC00093FBBDF8040041BAF5484180BDF80610EA
:103BD00049BA8180BDF8081049BAC180BDF80A1001
:103BE00049BA4182BDF80C1049BA8182BDF80E1065
:103BF00049BAC182BDF8101049BA0181BDF812104E
:103C000049BA4181BDF8141049BA8181BDF8161036
:103C100049BAC181BDF8181049BA01820121017069
:103C2000002008B010BDFFE70120FAE7DC4910B51D
:103C30000978044651B12E23F422EE21D74800F032
:103C40009EFB41F29411A1810020EBE70220E9E7FD
:103C50007CB5D34C0546207800284FF0020032D0C6
:103C6000009001ABF622EE21CC4800F03DFBBDF800
:103C7000040040BA2083E18A401AA18A484300EE3A
:103C8000100AB8EEC00ADFEDC70A20EE200ABDEE2A
:103C9000C00A10EE101AE161B4F90E00B4F9102058
:103CA000C0020A4490FBF2F020620844E06208304F
:103CB00000EE100AB8EEC00ADFEDBB0A002080EE6D
:103CC000201A85ED021A7CBD70B50446B4480D4635
:103CD000007850B141F294102DB1012D07D0022D82
:103CE00011D0032D13D0342304E0022070BD7423BF
:103CF00041F64C50A081F422EE21A84800F03FFB91
:103D0000A573002070BDB42343F2C820F2E7F4236A
:103D100046F2A810EEE72DE9F047A14C06462DED3E
:103D2000048B82B0207800287ED00320009001AB65
:103D3000F622EE21994800F0D7FA9DF804009DF88C
:103D40000510000440EA01209DF80610B77B0843E7
:103D5000C7F10801C8402064E56A8146A5F57A6587
:103D600005FB05F800EE108AB8EEC00A9FED8F9AA9
:103D70002563B4F90A0060EE090A00EE100AB8EEF5
:103D8000C00A20EE800ADFED8A0AB4F9041020EEA2
:103D9000200A6943BDEEC00A10EE100A00EE101AA8
:103DA000B8EEC00A20EE200ABDEEC00A10EE101ACE
:103DB0000844B4F9021000EB8100B840801C02F006
:103DC00080FB9FED7C8B53EC182B02F099FA02F0EC
:103DD00096FB8246A062B4F90600684300EE100A22
:103DE000B8EEC00ADFED750A20EE200ABDEEC00A6B
:103DF00010EE101A00EE108AE161B4F90800B8EE76
:103E0000C00A60EE090A00EE100AB8EEC00A20EE01
:103E1000800A9FED6B9A20EE090ABDEEC00A10EEF3
:103E2000100A2062084400E028E0801C02F049FBF0
:103E300053EC182B02F064FA02F061FB6062618AB5
:103E400000F50040414300EE101AB8EE400ADFEDE5
:103E5000550A4CF25032A9EB0A0020EE200AFA4033
:103E60005043B0F1004FBCEEC00A10EE101AC4E986
:103E70000E1009D24000B0FBF1F008E0022002B0C1
:103E8000BDEC048BBDE8F087B0FBF1F0400000EE24
:103E9000100AB8EEC00ADFED4B0A40F6DE3260636E
:103EA00020EE200A20EE000ABDEEC00A10EE101A25
:103EB000514300EE101A444AB8EEC00A424320EEC5
:103EC000090ABDEEC00A10EE101A00EE102AB8EE74
:103ED000C00A20EE090ABDEEC00A10EE102AC4E99D
:103EE0000712114401F6CF6100EE101AF8EEC00A75
:103EF00000EE100AB8EEC00A9FED341A00EE810AF7
:103F0000DFED330ABDEEC00A84ED0D0A86ED010A2D
:103F1000B8EEC00A20EE200A10EE100A02F027FBCD
:103F200041EC100B9FED2B1B03F062F851EC100BD2
:103F300002F060FB00EE100AF7EE000A002030EEFF
:103F4000C00ADFED260A20EE200A86ED000A96E779
:103F5000DFED220A10B580EE201AB7EE000A044603
:103F600030EE410A10EE100A02F001FB41EC100B9A
:103F70009FED1B1B03F03CF851EC100B02F03AFBD9
:103F800000EE104A00EE900AB8EE400A80EE201AC9
:103F9000BCEEC10A28E00000A086010000540040E9
:103FA0009800002000000038000020430000803905
:103FB0000000003A000000000000D03F000000397F
:103FC000000080370000803B43E3FFFF0000803D9E
:103FD00008942537B9066CBD955BC83F002A2D476C
:103FE00085EB51B81E05154010EE100A1AE60000C8
:103FF00070477CB50425012440B1012813D0032863
:1040000003D10421FD48FFF7F3FF7CBD01231A46CD
:104010001902FB48CDE90045FEF7C3F901231A4612
:104020005902F84804E00123F7481A464FF4C071DA
:10403000CDE90045FEF7B5F97CBD1CB50421012290
:1040400048B101280FD0022814D0032802D1EF482C
:10405000FFF7CEFF1CBDCDE9002101231A464FF426
:104060004061EB480CE0CDE9002101231A46032111
:10407000E84805E0CDE9002101231A463021E24855
:10408000FEF78FF91CBD1CB50421E14C012248B19B
:1040900001280DD0022812D0032802D1DE48FFF7F4
:1040A000A7FF1CBDCDE9002101231A46C0210CE069
:1040B000CDE9002101231A464FF4407105E0CDE916
:1040C000002101231A464FF410712046FEF769F9CA
:1040D0001CBD2DE9FF4715460446CF4A0026CF48B0
:1040E000CF4F4FF480484BF6FF7994420CD10268D1
:1040F00042F4001202600846FFF7C5FF3868A84284
:1041000000D93D6038681EE0C04A94420CD1026874
:1041100042F4800202600846FFF78FFF7868A842E9
:1041200000D97D6078680EE0B44A944216D10268E6
:1041300042F4000202600846FFF75BFFB868A8423D
:1041400000D9BD60B868ADF80460ADF808600090B3
:10415000ADF80C80ADF80A60ADF80690208820F02C
:104160000100208069462046FDF778F9208840F05C
:1041700001002080BDE8FF8770B50446008820F468
:1041800080602080208840F400702080A44D44F698
:1041900020602D1FA34E286003E02A68521E2A606B
:1041A00008D031462046FDF7A3FA0028F5D0208A32
:1041B000C0B270BD012070BD70B50446008840F4E7
:1041C00080702080964D44F620662D1F2E6003E0FF
:1041D0002868401E28602AD0A08AC007F8D01BB1EA
:1041E000208840F4806020805AB921F001002082AC
:1041F0002E6003E02868401E286018D0A08A80073F
:10420000F8D5012A10D141F0010020822E60854EA0
:104210003E3E03E02868401E286008D03146204614
:10422000FDF766FA0028F5D0208B002070BD012034
:1042300070BD7B4A44F62061121F116003E01168D3
:10424000491E11600BD0818A0906F8D5818A490779
:10425000F5D5018841F400710180002070470120EC
:1042600070476F4B44F620621B1F1A60828A120649
:1042700003D41A680AB1521EF7E70182704770B57D
:10428000164600230C4605461A46FFF795FF3146B1
:104290002846FFF7E6FF2846FFF7CBFF0023012261
:1042A00021462846FFF788FF2846BDE8704063E7AF
:1042B00070B50546008840F480602880584C44F66C
:1042C0002060241F574E206003E02268521E2260A7
:1042D00008D031462846FDF70BFA0028F5D0288A89
:1042E000C0B270BD012070BD2DE9F0411D461646DB
:1042F0000C46804601230022069FFFF75DFF3146F2
:104300004046FFF7AEFF01231A4621464046FFF71D
:1043100053FF00247E1E0AE0B442404602D1FFF75C
:104320002BFF01E0FFF7C4FF2855641CE4B2BC4238
:10433000F2D3BDE8F08110B5012304461A46FFF719
:104340003BFF2046BDE8104016E72DE9F0411E4630
:104350001546012380461A46FFF72EFF0024771EDC
:104360000AE0BC42404602D1FFF706FF01E0FFF73A
:104370009FFF2855641CE4B2B442F2D3D9E770B56C
:104380001D461646002304461A46FFF715FF314620
:104390002046FFF766FF29462046FFF762FF2046CA
:1043A000BDE8704045E72DE9F0411D461446002365
:1043B00007461A46069EFFF7FFFE21463846FFF7DE
:1043C00050FF002405E0295D3846FFF74AFF641CD2
:1043D000E4B2B442F7D33846BDE8F04129E770B5FE
:1043E0001546002304461A46FFF7E6FE29462046F6
:1043F000FFF737FF2046BDE870401AE7005C004039
:104400000000024000080240001C0240005800402A
:1044100000040240001402400054004040380240B2
:10442000E0000020400003002DE9F0411D46164643
:10443000002307461A46FFF7BFFE002405E0315D62
:104440003846FFF70EFF641CE4B2AC42F7D338469F
:10445000BDE8F041EDE670B5002405460123224693
:10446000FFF7AAFE00B901242846FFF7E2FE204626
:1044700070BD000010B58AB00446002001218DF8FF
:104480001410C44B8DF80500C349049003900290AA
:104490008DF804004FF080729C4203D10B6843F406
:1044A00080730CE0BD4B9C4203D10B6843F4007356
:1044B00005E0BB4B9C4204D10B6843F480630B6066
:1044C0000092089006904FF4803007904FF44070AF
:1044D000099006A8FDF78DF969462046FDF75EF9BB
:1044E000A06840F00100A0600AB010BD1CB5012317
:1044F0000222CDE9002300230322FDF741FF1CBD6A
:10450000A449884202D0A549884202D12021A54869
:1045100004E0A349884202D12021A348E6E770477E
:1045200010B504469B48844202D09C48844203D183
:1045300010219C48FFF7DAFF9948844204D1BDE876
:10454000104010219848D1E710BD08219548CDE7CB
:1045500004219448CAE702219248C7E70121914803
:10456000C4E710B504468B48844202D08B4884428D
:1045700003D102218D48FFF7B9FF8948844204D155
:10458000BDE8104008218848B0E710BD10B50446CA
:104590008048844202D08148844203D1012183486B
:1045A000FFF7A4FF7E48844204D10115BDE8104006
:1045B0007D489BE710BD10B504467648844202D082
:1045C0007648844203D180217948FFF78FFF7448F1
:1045D000844204D14115BDE81040734886E710BD00
:1045E00010B504466B48844202D06C48844203D123
:1045F00040216F48FFF77AFF6948844204D1811552
:10460000BDE81040684871E710BD10B50446614828
:10461000844202D06148844203D120216448FFF7DC
:1046200065FF5F48844204D1BDE8104080215E48A8
:104630005CE710BD10B504465648844202D0574886
:10464000844203D110215A48FFF750FF5448844256
:1046500004D1BDE810404021534847E710BD082170
:10466000534843E70421524840E7022150483DE7C0
:1046700001214F483AE710B504464D48F9B10129E8
:104680001FD002291FD003291FD0042921D00529BA
:1046900023D0062925D0072927D0082929D0092980
:1046A0002BD040480A290AD00B290AD00C290AD05D
:1046B0000D290AD00E2924D00F2926D028E0012167
:1046C00004E0022102E0042100E00821FFF70EFFD0
:1046D0001EE02046FFF7AEFF1AE02046FFF795FFE9
:1046E00016E02046FFF77CFF12E02046FFF763FF4D
:1046F0000EE02046FFF74AFF0AE02046FFF731FFB1
:1047000006E02046FFF70CFF02E02046FFF7F8FE28
:104710002046BDE81040ADE670B50123054640F6E1
:10472000FF741A46FDF7AFF8A86840F08040A86013
:1047300002E02046641E04D328688007F9D5E86C9F
:1047400080B270BD1348D0F8041341F48001C0F862
:10475000041370470F48D0F8041321F48001C0F807
:104760000413704710B50446052301221221FDF7FA
:104770008AF8A06840F08040A06020688007FCD5DF
:10478000E06C4FF4C351484340F6FF71B0FBF1F0C9
:1047900080B210BD00200140443802400021014099
:1047A00000220140000802400014024000040240C0
:1047B000000002402DE9F0410F46044601461D4627
:1047C00016469FED2C0B3846FDF7D8FE28B92A4631
:1047D00031462046FEF773FA10B10120BDE8F081A2
:1047E00044F8287F002026716571F7E7B5EEC00A0E
:1047F00010B5F1EE10FA04D310EE101A1F4A9142D0
:1048000001DD012010BDDFED1E0A9FED1E2A60EEC6
:10481000201A81EE821A71EE200AFCEEE00A10EEF8
:10482000901A8AB2828680ED0C0A90F82C10FEF75E
:104830003DFB002010BD10B5A1F57A72B2F57A7F6C
:1048400001D9012010BD00EE102ADFED0E0A9FED08
:104850000C1AB8EEC00A81860A4660EE200A80EE85
:10486000810A80ED0C0A90F82C301946FEF71EFBE9
:10487000002010BD0000000000004940000034434B
:1048800000007A44000034432DE9FE4F164683466B
:104890000C004FF0010A02D0601E014212D0002528
:1048A000574607FA05F0204205D081B232465846F5
:1048B000FFF7EAFFB8BB6D1CEDB2102DF1D300205D
:1048C000BDE8FE8FDFF8F082D8F80000204234D136
:1048D00008F10409D9F8000020422ED1B4F5807FF8
:1048E00037D012DC102C32D008DC012C27D0022C5F
:1048F00027D0042C27D0082C1FD126E0202C28D02C
:10490000402C26D0802C18D123E0B4F5805F22D033
:104910000ADCB4F5007F1CD0B4F5806F1BD0B4F571
:10492000006F0AD117E008E0B4F5005F13D0B4F5CA
:10493000804F10D0B4F5004F0DD00120C0E7062500
:104940000AE0072508E0082506E0092504E00A2515
:1049500002E0172500E02825012E51D0F6B30020F3
:104960000021CDE900010B460A4621465846FDF7D5
:1049700007FD2046FDF7D8FDC7B25846FDF7B0FC4D
:10498000C2B28E48016841F4804101608C4827F032
:1049900003010844D0F80838B907090F4FF00F0C8D
:1049A0000CFA01FC23EA0C03C0F80838D0F80838E8
:1049B0008A401343C0F80838D8F80010A143C8F85B
:1049C0000010D9F80020A243C9F80020D8F8001040
:1049D0002143C8F8001078480C3000E012E001686C
:1049E000A1430160011F0A68A2430A60012E0BD097
:1049F00016B102682243026008682043086006E09E
:104A00000120ADE70220ABE70168214301608DF88A
:104A100008500A208DF809008DF80A708DF80BA057
:104A200002A8FBF7D2FB4AE763490A6882430A609F
:104A3000091D0A6882430A605F490C310A68824393
:104A40000A60091F0A6882430A60002070475A48BA
:104A500001686FF30F010160001D01686FF30F0122
:104A6000016055480C3001686FF30F010160001FB1
:104A700001686FF30F0101604F48143001686FF354
:104A80000F01016070474C4810B514300168C90728
:104A900004D0012101600846AFF3008010BD4648F4
:104AA00010B514300168890704D502210160084659
:104AB000AFF3008010BD404810B5143001684907BD
:104AC00004D5042101600846AFF3008010BD3A48C8
:104AD00010B514300168090704D5082101600846A3
:104AE000AFF3008010BD344810B514300168C9061A
:104AF00004D5102101600846AFF3008010BD10B549
:104B00002D4C14342068800603D520202060AFF39C
:104B100000802068400603D540202060AFF300806D
:104B20002068000603D580202060AFF30080206855
:104B3000C00504D54FF480702060AFF3008020687A
:104B4000800504D54FF400702060AFF3008010BDE5
:104B500010B5194C14342068400503D52015206089
:104B6000AFF300802068000504D54FF4006020609A
:104B7000AFF300802068C00404D54FF4805020605B
:104B8000AFF300802068800404D54FF4005020600B
:104B9000AFF300802068400404D54FF480402060CB
:104BA000AFF300802068000404D54FF4004020607B
:104BB000AFF3008010BD0000003C014044380240CB
:104BC0000030014010B52DED0A8BB0EE41AAF0EE99
:104BD00061AAB0EE44BAF0EE64BAB0EE438AF0EEE9
:104BE000638AB0EE40CAF0EE60CA53EC1A2B51EC67
:104BF000120B01F07FFB41EC190B53EC182B51EC1D
:104C00001B0B01F077FB41EC1B0B53EC1A2B51EC07
:104C10001C0B01F06FFB53EC1B2B01F071FB53ECF1
:104C2000192B01F0DFFB53EC182B01F0C2FABDEC9D
:104C30000A8B41EC100B10BD70B5FE4CFAA120465A
:104C4000FDF7CBFAFC4DA521284600F0DEFF5521EB
:104C5000284600F0DAFFAA2000F0C1FFA52128466F
:104C600000F0D3FF5421284600F0CFFFAA2000F027
:104C7000B6FFA521284600F0C8FF5221284600F0C3
:104C8000C4FF2046BDE87040ECA1FDF7A6BAEE488F
:104C9000262101700021417001218170C170FBF754
:104CA00094BA2DE9F041E44F40F225513846FBF724
:104CB00096FEE54D00261435A5F1A00468B13846EE
:104CC000FBF7F6FD2178685411B92878AA2864D139
:104CD000491CC8B22070082861D0607801285CD1D6
:104CE0002878AA2859D1E879552856D1667035F820
:104CF000010F40BA00EE100AF8EE400A9FEDD30A09
:104D0000D34820EE801A80ED001A698811EE102A2F
:104D100049BA00EE901AF8EE600A60EE800AC0ED23
:104D2000010AA98849BA01EE901ACA49F8EE611A37
:104D300021EE800A80ED020A9FEDC72AC7488A4209
:104D400009DD72EE411A11EE102AC4ED1C1A8242DE
:104D500003DDB1EE611A84ED1C1A10EE902A8A422E
:104D600009DD32EE601A10EE902A84ED1D1A82429F
:104D700003DDF1EE410AC4ED1D0A10EE102A8A424D
:104D800009DD72EE400A10EE101AC4ED1E0A8142CF
:104D900003DDB1EE600A84ED1E0ABDE8F0812670E5
:104DA000012060709CE770B5A74CA24E8C3C04F1CA
:104DB000800594ED1F0AD4ED1C0AA9A1B14830EE7C
:104DC000200A84ED1F0A95ED000AD4ED1D0A30EE8D
:104DD000200A85ED000A95ED010AD4ED1E0A30EE99
:104DE000200A85ED010A226A521C226202F0B4F800
:104DF000322000F0F4FEA3493046FDF7EEF9206AB8
:104E00006428D6D1D4ED1F0A9FED9F0A9FA130469A
:104E100080EE801A84ED1F1AD5ED000A80EE801A0C
:104E200085ED001AD5ED010A80EE801A85ED011A94
:104E3000FDF7D3F94FF47A7000F0D1FE0020206224
:104E400070BD83480C30FEF76EBB81483C30FEF7E6
:104E50006ABB7F486C30FEF766BB7D489C30FEF72E
:104E600062BB7B48CC30FEF75EBB7948FC30FEF776
:104E70005ABB00B51B202DED028B81B09FED8E8AB1
:104E8000734900230090B0EE480A1A460C318B4853
:104E9000FEF798FA1E206E490090B0EE480A0123F2
:104EA00000223C318648FEF78DFA1D2068490090AB
:104EB000B0EE480A012300226C318248FEF782FAE4
:104EC0003220634900230090B0EE480A1A469C3114
:104ED0007D48FEF777FA18205D4901230090B0EE77
:104EE000480A1A46CC317948FEF76CFA2E20584908
:104EF0000090B0EE480A00230122FC317448FEF70E
:104F000061FA01B0BDEC028B00BD10B59FED710BD5
:104F10004FF0804471492046FDF730FB012200210B
:104F20006E48FDF7CCFE022200216C48FDF7C7FE5B
:104F30006A480023012221462830FFF73BFC6748DE
:104F40000023022221466030FFF734FC634800232F
:104F5000032221469830FFF72DFC3B4C5F488C3CE8
:104F6000283094ED090AB8EEC00AFFF73FFC94ED33
:104F7000090A5A48B8EEC00A6030FFF737FC94EDD2
:104F8000090A5648BDE81040B8EEC00A9830FFF74D
:104F90002DBC70B5524D2DED0C8B28682A4E8C3EE1
:104FA000B168401A9FED4FBB9FED50DB9FED519BC9
:104FB00006F180049FED51AB322834D324480C30E5
:104FC000FEF7A1FA22483C30FEF79DFA20486C30EB
:104FD000FEF799FA41489038FEF795FA3F48603855
:104FE000FEF791FA3D483038FEF78DFA18480C303C
:104FF000406801F0BCFA41EC180B154884ED0A8BAF
:105000003C30406801F0B3FAC4E90C0110486C3040
:10501000406801F0ACFAC4E90E01304890384068AD
:1050200001F0A5FA6EE036E14D6173756B20494DD4
:105030005500000000100140004400406B656C7595
:10504000617220494D5500007C0100200AD7233CA5
:10505000DC0600200000334300C023440080ED4301
:105060000A0D4249534D494C4C4148204B414C4953
:10507000425241534920494D552E2E2E256420255C
:10508000250000002A0400200000C8420A0D414CFF
:1050900048414D44554C494C4C4148204B414C49AA
:1050A000425241534920494D5520424552484153AF
:1050B000494C2E2E2E000000000048420000014006
:1050C0000008004000040040000C00400040014087
:1050D00000040140000000000000494008080020D2
:1050E000140000200000000000408F40000000007D
:1050F00000409F400000000000002440000000002D
:1051000000406540C4E91001FE48406801F02FFAF4
:10511000C4E91201FB483030406801F028FAB0EED3
:105120004A4AF0EE6A4AB0EE493AF0EE693AB0EE19
:10513000492AF0EE692A9FEDF4CBB0EE480AF0EE72
:10514000680AB0EE4C1AF0EE6C1AC4E91401FFF7CD
:1051500039FD84ED0A0BB0EE494AF0EE694AB0EE33
:105160004A3AF0EE6A3AB0EE492AF0EE692AB0EE19
:105170004C1AF0EE6C1A94ED0C0BFFF723FDB0EE19
:105180004D8AF0EE6D8A84ED0C0BB0EE484AF0EEDD
:10519000684AB0EE4B3AF0EE6B3AB0EE492AF0EEC8
:1051A000692AB0EE4C1AF0EE6C1A94ED0E0BFFF774
:1051B00009FD84ED0E0BB0EE4A4AF0EE6A4AB0EEFD
:1051C000493AF0EE693AB0EE492AF0EE692AB0EEBB
:1051D0004C1AF0EE6C1A94ED100BFFF7F3FC84ED13
:1051E000100B94ED0A0B53EC192B51EC100B01F042
:1051F000D1F901D284ED0A9B94ED0A0B53EC1A2BE2
:1052000051EC100B01F0DEF901D284ED0AAB94ED04
:105210000C0B53EC192B51EC100B01F0BBF901D224
:1052200084ED0C9B94ED0C0B53EC1A2B51EC100BF2
:1052300001F0C8F901D284ED0CAB94ED0E0B53ECE8
:105240001B2B51EC100B01F0A5F901D284ED0EBB24
:1052500094ED0E0B53EC182B51EC100B01F0B2F93E
:1052600001D284ED0E8B94ED100B53EC192B51EC05
:10527000100B01F08FF901D284ED109B94ED100B0F
:1052800053EC1A2B51EC100B01F09CF901D284ED78
:1052900010AB2868B060BDEC0C8B70BD10B59C489D
:1052A000FEF77AFC002804D09AA19D48FCF795FFF0
:1052B000FEE710BD70B59B4D28689B4EF168401A03
:1052C000C82821D39248FEF7B1FC914CA08900F088
:1052D00080FC2046FEF7BCFC03212046FEF7F4FCD0
:1052E000A08900F076FC2046FEF715FD06F180004F
:1052F00094ED000AD0ED040A30EE600ABDEEC00A5B
:1053000080ED050A2868F06070BD2DE9F041864DFA
:105310007F4E854C824F80357D48FEF787FCB089F3
:1053200000F057FC7A48FEF793FC03217848FEF71B
:10533000CBFCB08900F04DFC7548FEF7ECFC96ED17
:10534000000AD5ED040A79A1814830EE200A85EDE6
:10535000040AA26A521CA26201F0FEFD7C49384692
:10536000FCF73BFFA06A6428D6D195ED040A5FEDF7
:10537000BA0A78A1384680EE201A85ED041AFCF7A7
:105380002CFF4FF47A7000F02AFC0020A06204E5A4
:10539000FDEEC00A10B510EE901A64222DED068BBA
:1053A00091FBF2F404FB02F100EE901AF8EEE00A31
:1053B00030EE608A9FED72AB572807D09FED729B4D
:1053C0004E2815D0452813D0532826D1204601F069
:1053D00078F841EC190B18EE100A01F0C8F853ECFC
:1053E0001A2B00F0FFFF53EC192B00F083FF10E0A5
:1053F00018EE100A01F0BBF853EC192B00F0F2FF85
:1054000041EC180B204601F05CF853EC182B00F02F
:10541000D0FE01F0EFF800EE100ABDEC068B10BDD7
:1054200070B5414C00254A4B2564C833216C585C4B
:10543000242811D158184278472A0DD182784E2A53
:105440000AD1C278472A07D102794C2A04D140797F
:105450004C2801D1A06C38B1491C2164C829E5D37E
:10546000A06C022804D041E0881D60640220A06482
:10547000606C2064024637E0985C2C2810D061698B
:10548000012913D0022913D0032915D0042917D0DC
:10549000052919D006291BD01FDD6561A56425E00B
:1054A000606900F10100C4E905051AE0384912E01D
:1054B000374901F10F010EE0354901F11E010AE003
:1054C000334901F12D0106E0314901F14B0102E0C0
:1054D0002F4901F13C01A6698855A06900F101003E
:1054E000A06102F101022264C82AC5D328484B30CA
:1054F00000F052FE6065264801F05EFD51EC100B95
:1055000048E00000A8070020000000000000144050
:10551000D80800200A0D424D505F4552524F5200AC
:105520000010014014000020F00000200A0D424944
:10553000534D494C4C4148204B414C4942524153F8
:105540004920424D502E2E2E256420252500000096
:105550002A0400200A0D414C48414D44554C494C09
:105560004C4148204B414C49425241534920424D05
:105570005020424552484153494C2E2E2E000000E7
:105580000000000000004EC00000000000004E407F
:105590008206002001F02EF8E064FE4801F00CFDC8
:1055A00051EC100B01F026F8206570BDF94910B5DB
:1055B000C822E639F848FCF7C3FD00281AD0F5499F
:1055C000E639A1F1C80000F0DEFDFFF729FFF14840
:1055D000F24C0F38007894ED130AFFF7D9FEED482E
:1055E00084ED160A0F3094ED140A0078FFF7D0FE10
:1055F00084ED170A10BD10B50E21E948FFF78CF8AD
:10560000E64C206600F05DFF9FEDE61B53EC112B8E
:1056100000F076FE9FEDE51B53EC112B00F070FEC1
:1056200000F0E8FFE06110BD10B50E21DC48FFF787
:1056300073F8DA4C606694ED180AB8EEC00A10EE02
:10564000100A00F094FF9FEDDB1B53EC112B00F0D0
:10565000C9FE9FEDDA1B53EC112B00F051FE00F058
:10566000C9FF00EE100A84ED1A0ADFEDD60A30EE0B
:10567000601A81EE200A84ED1B0AB5EEC00AF1EE35
:1056800010FA03D29FEDD00A84ED1B0A10EE100A27
:1056900000F06DFF9FEDCD1B53EC112B00F030FEA1
:1056A0009FEDCC1B53EC112B00F09CFE41EC100B3A
:1056B00002F0C6FA9FEDC91B51EC100B53EC112BF5
:1056C00000F01EFEB54A8032C2E9060110BD10B5D9
:1056D0006422C449C448FCF733FD002808D0C148FF
:1056E000AE490078412804D04D2801D1002008613E
:1056F00010BD0120FBE7A94810B590ED0E0ABB488C
:10570000B8EEC00AFFF772F8A44C803494ED0C0B8D
:1057100051EC100B00F06EFF00EE100AB348703031
:10572000FFF764F894ED100B51EC100B00F062FFE2
:1057300000EE100AAD483830FFF758F89FEDAC0B7B
:1057400040F26C7084ED0E0B0246A060A748002169
:105750002838FDF7ABFBA548A2680021BDE8104042
:105760002838FDF7A3BB10B58C4CA04894ED0E0A69
:10577000B8EEC00AFFF73AF894ED0D0A9B48B8EE70
:10578000C00A7030FFF732F89FED9B0A9748383017
:10579000FFF72CF8803494ED0E0B51EC100B00F059
:1057A000AEFE0246A060914800212838FDF77EFB3E
:1057B0008E48A2680021BDE810402838FDF776BB6E
:1057C00010B5764C894894ED0E0AB8EEC00AFFF782
:1057D0000DF894ED0D0A8548B8EEC00A7030FFF759
:1057E00005F894ED0F0A8148B8EEC00A3830FEF78C
:1057F000FDFF803494ED0E0B51EC100B00F07FFE9A
:105800000246A060794800212838FDF74FFB774811
:10581000A2680021BDE810402838FDF747BB10B54D
:105820005E4C803494ED0A0B51EC100B00F0E2FE5C
:1058300000EE100A6D48FEF7D9FF94ED0C0B51EC09
:10584000100B00F0D7FE00EE100A68487030FEF72B
:10585000CDFF94ED100B51EC100B00F0CBFE00EEE1
:10586000100A62483830FEF7C1FF94ED0E0B51EC80
:10587000100B00F044FE0246A0605C48002128386E
:10588000FDF714FB5948A2680021BDE810402838F4
:10589000FDF70CBB10B5414C544894ED0E0AB8EE20
:1058A000C00AFEF7A3FF94ED0D0A5048BDE8104072
:1058B000B8EEC00A7030FEF799BF10B5374C4B48B0
:1058C00094ED0E0AB8EEC00AFEF790FF94ED0D0AB3
:1058D0004648B8EEC00A7030FEF788FF94ED0C0A17
:1058E00042480021BCEEC00A283810EE102AFDF70D
:1058F000DDFA94ED0C0A3D480021BCEEC00ABDE87B
:10590000104010EE102A2838FDF7D0BA2DE9F04FDC
:105910003A498DB00968214C6268891A814238D3AE
:10592000E06D00F024FE07468846A06D00F01FFEE3
:1059300004F1800B94ED1E0ADBED010A05460E46CC
:1059400030EE600A10EE100A00F011FECDE9000101
:1059500094ED1D0ADBED000A30EE600A10EE100A2D
:1059600000F005FE94ED1C0AD4ED1F0A81468A461C
:1059700030EE600A10EE100A00F0F9FD41EC100B59
:1059800008A880E8E001DBF8140006909BED061BF8
:1059900036E04EE0A006002000480040F000002065
:1059A0000020014012A5BDC117660840B1DD1C32C0
:1059B0000EC3713F0000000000FEAF400000000079
:1059C000000008409A99193F000000000000000004
:1059D00000000040333333333333F33FC669882A42
:1059E000FC19FF3F8E040020001001403008002009
:1059F0000000000000B09D4000002A431400002079
:105A00008DED041BDDE90001CDE90201CDE9009A2D
:105A100053EC102B84A18C4801F09EFA8A4800F0C8
:105A2000ABFB82B288498948FCF7ECFB88480068E8
:105A300060600DB0BDE8F08F2DED0C8B00F02FFBFA
:105A4000FCF776F8814D4FF4E134224600212846D8
:105A5000FCF78AFA224601217E48FCF785FA4FF4CA
:105A6000165201217C48FCF77FFAFFF717FCFFF77D
:105A70000EF9FFF7E1F8FFF7FCF9FFF746FAFFF739
:105A800044FCFFF790F975A12846FCF7A6FB4FF4FC
:105A90007A7000F0A4F89FED7DCB9FED7EDB9FED4B
:105AA0007FBB804D0026A5F18004FFF77FFDFFF747
:105AB00001FCFFF7A0FDFFF70AFEFFF76AFAFFF708
:105AC000B3FD2069002877D195ED120BB0EE4CAAFA
:105AD000F0EE6CAA53EC1A2B51EC100B00F05AFDAF
